{
  "contractName": "UserLogin",
  "abi": [
    {
      "anonymous": false,
      "inputs": [
        {
          "indexed": false,
          "internalType": "uint256",
          "name": "userId",
          "type": "uint256"
        },
        {
          "indexed": false,
          "internalType": "string",
          "name": "ethereumId",
          "type": "string"
        }
      ],
      "name": "UserLoggedIn",
      "type": "event"
    },
    {
      "inputs": [],
      "name": "userCount",
      "outputs": [
        {
          "internalType": "uint256",
          "name": "",
          "type": "uint256"
        }
      ],
      "stateMutability": "view",
      "type": "function",
      "constant": true
    },
    {
      "inputs": [
        {
          "internalType": "uint256",
          "name": "",
          "type": "uint256"
        }
      ],
      "name": "users",
      "outputs": [
        {
          "internalType": "uint256",
          "name": "userId",
          "type": "uint256"
        },
        {
          "internalType": "string",
          "name": "ethereumId",
          "type": "string"
        }
      ],
      "stateMutability": "view",
      "type": "function",
      "constant": true
    },
    {
      "inputs": [
        {
          "internalType": "uint256",
          "name": "_userId",
          "type": "uint256"
        },
        {
          "internalType": "string",
          "name": "_ethereumId",
          "type": "string"
        },
        {
          "internalType": "uint256",
          "name": "_userAge",
          "type": "uint256"
        }
      ],
      "name": "loginUserAgeGated",
      "outputs": [
        {
          "internalType": "bool",
          "name": "",
          "type": "bool"
        }
      ],
      "stateMutability": "view",
      "type": "function",
      "constant": true
    },
    {
      "inputs": [
        {
          "internalType": "uint256",
          "name": "_userId",
          "type": "uint256"
        },
        {
          "internalType": "string",
          "name": "_ethereumId",
          "type": "string"
        }
      ],
      "name": "loginUserNonAgeGated",
      "outputs": [
        {
          "internalType": "bool",
          "name": "",
          "type": "bool"
        }
      ],
      "stateMutability": "view",
      "type": "function",
      "constant": true
    }
  ],
  "bytecode": "0x608060405234801561001057600080fd5b50610b13806100206000396000f3fe608060405234801561001057600080fd5b506004361061004c5760003560e01c806307973ccf14610051578063365b98b21461006f578063b535d6e2146100a0578063e5aa2008146100d0575b600080fd5b610059610100565b6040516100669190610568565b60405180910390f35b610089600480360381019061008491906105c3565b610106565b604051610097929190610680565b60405180910390f35b6100ba60048036038101906100b591906107e5565b6101b2565b6040516100c7919061085c565b60405180910390f35b6100ea60048036038101906100e59190610877565b61035e565b6040516100f7919061085c565b60405180910390f35b60015481565b600060205280600052604060002060009150905080600001549080600101805461012f90610915565b80601f016020809104026020016040519081016040528092919081815260200182805461015b90610915565b80156101a85780601f1061017d576101008083540402835291602001916101a8565b820191906000526020600020905b81548152906001019060200180831161018b57829003601f168201915b5050505050905082565b600080831180156101c557506001548311155b610204576040517f08c379a00000000000000000000000000000000000000000000000000000000081526004016101fb90610992565b60405180910390fd5b60008060008581526020019081526020016000206040518060400160405290816000820154815260200160018201805461023d90610915565b80601f016020809104026020016040519081016040528092919081815260200182805461026990610915565b80156102b65780601f1061028b576101008083540402835291602001916102b6565b820191906000526020600020905b81548152906001019060200180831161029957829003601f168201915b5050505050815250509050826040516020016102d291906109ee565b6040516020818303038152906040528051906020012081602001516040516020016102fd91906109ee565b6040516020818303038152906040528051906020012014610353576040517f08c379a000000000000000000000000000000000000000000000000000000000815260040161034a90610a51565b60405180910390fd5b600191505092915050565b6000808411801561037157506001548411155b6103b0576040517f08c379a00000000000000000000000000000000000000000000000000000000081526004016103a790610992565b60405180910390fd5b6000806000868152602001908152602001600020604051806040016040529081600082015481526020016001820180546103e990610915565b80601f016020809104026020016040519081016040528092919081815260200182805461041590610915565b80156104625780601f1061043757610100808354040283529160200191610462565b820191906000526020600020905b81548152906001019060200180831161044557829003601f168201915b50505050508152505090508360405160200161047e91906109ee565b6040516020818303038152906040528051906020012081602001516040516020016104a991906109ee565b60405160208183030381529060405280519060200120146104ff576040517f08c379a00000000000000000000000000000000000000000000000000000000081526004016104f690610a51565b60405180910390fd5b6015831015610543576040517f08c379a000000000000000000000000000000000000000000000000000000000815260040161053a90610abd565b60405180910390fd5b60019150509392505050565b6000819050919050565b6105628161054f565b82525050565b600060208201905061057d6000830184610559565b92915050565b6000604051905090565b600080fd5b600080fd5b6105a08161054f565b81146105ab57600080fd5b50565b6000813590506105bd81610597565b92915050565b6000602082840312156105d9576105d861058d565b5b60006105e7848285016105ae565b91505092915050565b600081519050919050565b600082825260208201905092915050565b60005b8381101561062a57808201518184015260208101905061060f565b60008484015250505050565b6000601f19601f8301169050919050565b6000610652826105f0565b61065c81856105fb565b935061066c81856020860161060c565b61067581610636565b840191505092915050565b60006040820190506106956000830185610559565b81810360208301526106a78184610647565b90509392505050565b600080fd5b600080fd5b7f4e487b7100000000000000000000000000000000000000000000000000000000600052604160045260246000fd5b6106f282610636565b810181811067ffffffffffffffff82111715610711576107106106ba565b5b80604052505050565b6000610724610583565b905061073082826106e9565b919050565b600067ffffffffffffffff8211156107505761074f6106ba565b5b61075982610636565b9050602081019050919050565b82818337600083830152505050565b600061078861078384610735565b61071a565b9050828152602081018484840111156107a4576107a36106b5565b5b6107af848285610766565b509392505050565b600082601f8301126107cc576107cb6106b0565b5b81356107dc848260208601610775565b91505092915050565b600080604083850312156107fc576107fb61058d565b5b600061080a858286016105ae565b925050602083013567ffffffffffffffff81111561082b5761082a610592565b5b610837858286016107b7565b9150509250929050565b60008115159050919050565b61085681610841565b82525050565b6000602082019050610871600083018461084d565b92915050565b6000806000606084860312156108905761088f61058d565b5b600061089e868287016105ae565b935050602084013567ffffffffffffffff8111156108bf576108be610592565b5b6108cb868287016107b7565b92505060406108dc868287016105ae565b9150509250925092565b7f4e487b7100000000000000000000000000000000000000000000000000000000600052602260045260246000fd5b6000600282049050600182168061092d57607f821691505b6020821081036109405761093f6108e6565b5b50919050565b7f496e76616c696420757365722049440000000000000000000000000000000000600082015250565b600061097c600f836105fb565b915061098782610946565b602082019050919050565b600060208201905081810360008301526109ab8161096f565b9050919050565b600081905092915050565b60006109c8826105f0565b6109d281856109b2565b93506109e281856020860161060c565b80840191505092915050565b60006109fa82846109bd565b915081905092915050565b7f496e76616c696420457468657265756d20494400000000000000000000000000600082015250565b6000610a3b6013836105fb565b9150610a4682610a05565b602082019050919050565b60006020820190508181036000830152610a6a81610a2e565b9050919050565b7f596f7520617265206e6f742061626f7665203231000000000000000000000000600082015250565b6000610aa76014836105fb565b9150610ab282610a71565b602082019050919050565b60006020820190508181036000830152610ad681610a9a565b905091905056fea26469706673582212203d511468a142ae6f1b75eb21667e51ad1d317948ae736acf31ceb4074a9a95e464736f6c63430008130033",
  "immutableReferences": {},
  "source": "//SPDX-License-identifier: MIT\r\npragma solidity ^0.8.0;\r\n\r\ncontract UserLogin {\r\n    struct User {\r\n        uint userId;\r\n        string ethereumId;\r\n    }\r\n\r\n    mapping(uint => User) public users;\r\n    uint public userCount;\r\n\r\n    event UserLoggedIn(uint userId, string ethereumId);\r\n\r\n    function loginUserAgeGated(uint _userId, string memory _ethereumId, uint _userAge) public view returns (bool) {\r\n        require(_userId > 0 && _userId <= userCount, \"Invalid user ID\");\r\n\r\n        User memory user = users[_userId];\r\n        require(keccak256(abi.encodePacked(user.ethereumId)) == keccak256(abi.encodePacked(_ethereumId)), \"Invalid Ethereum ID\");\r\n\r\n        require(_userAge >= 21, \"You are not above 21\");\r\n\r\n       \r\n        return true;\r\n    }\r\n\r\n    function loginUserNonAgeGated(uint _userId, string memory _ethereumId) public view returns (bool) {\r\n        require(_userId > 0 && _userId <= userCount, \"Invalid user ID\");\r\n\r\n        User memory user = users[_userId];\r\n        require(keccak256(abi.encodePacked(user.ethereumId)) == keccak256(abi.encodePacked(_ethereumId)), \"Invalid Ethereum ID\");\r\n\r\n      \r\n        return true;\r\n    }\r\n}\r\n",
  "sourcePath": "C:\\Users\\Jayka\\Desktop\\zkPass\\contracts\\UserLogin.sol",
  "compiler": {
    "name": "solc",
    "version": "0.8.19+commit.7dd6d404.Emscripten.clang"
  },
  "schemaVersion": "3.4.16",
  "updatedAt": "2024-04-03T18:22:34.688Z",
  "networkType": "ethereum",
  "devdoc": {
    "kind": "dev",
    "methods": {},
    "version": 1
  },
  "userdoc": {
    "kind": "user",
    "methods": {},
    "version": 1
  }
}